{
  "_format": "hh-sol-artifact-1",
  "contractName": "Domains",
  "sourceName": "contracts/Domains.sol",
  "abi": [
    {
      "inputs": [
        {
          "internalType": "string",
          "name": "_tld",
          "type": "string"
        }
      ],
      "stateMutability": "payable",
      "type": "constructor"
    },
    {
      "inputs": [
        {
          "internalType": "string",
          "name": "",
          "type": "string"
        }
      ],
      "name": "domains",
      "outputs": [
        {
          "internalType": "address",
          "name": "",
          "type": "address"
        }
      ],
      "stateMutability": "view",
      "type": "function"
    },
    {
      "inputs": [
        {
          "internalType": "string",
          "name": "name",
          "type": "string"
        }
      ],
      "name": "getAddress",
      "outputs": [
        {
          "internalType": "address",
          "name": "",
          "type": "address"
        }
      ],
      "stateMutability": "view",
      "type": "function"
    },
    {
      "inputs": [
        {
          "internalType": "string",
          "name": "name",
          "type": "string"
        }
      ],
      "name": "getRecord",
      "outputs": [
        {
          "internalType": "string",
          "name": "",
          "type": "string"
        }
      ],
      "stateMutability": "view",
      "type": "function"
    },
    {
      "inputs": [
        {
          "internalType": "string",
          "name": "name",
          "type": "string"
        }
      ],
      "name": "price",
      "outputs": [
        {
          "internalType": "uint256",
          "name": "",
          "type": "uint256"
        }
      ],
      "stateMutability": "pure",
      "type": "function"
    },
    {
      "inputs": [
        {
          "internalType": "string",
          "name": "",
          "type": "string"
        }
      ],
      "name": "records",
      "outputs": [
        {
          "internalType": "string",
          "name": "",
          "type": "string"
        }
      ],
      "stateMutability": "view",
      "type": "function"
    },
    {
      "inputs": [
        {
          "internalType": "string",
          "name": "name",
          "type": "string"
        }
      ],
      "name": "register",
      "outputs": [],
      "stateMutability": "payable",
      "type": "function"
    },
    {
      "inputs": [
        {
          "internalType": "string",
          "name": "name",
          "type": "string"
        },
        {
          "internalType": "string",
          "name": "record",
          "type": "string"
        }
      ],
      "name": "setRecord",
      "outputs": [],
      "stateMutability": "nonpayable",
      "type": "function"
    },
    {
      "inputs": [],
      "name": "tld",
      "outputs": [
        {
          "internalType": "string",
          "name": "",
          "type": "string"
        }
      ],
      "stateMutability": "view",
      "type": "function"
    }
  ],
  "bytecode": "0x608060405260405162001a9438038062001a9483398181016040528101906200002991906200032c565b80600090816200003a9190620005c8565b50620000826040518060400160405280601881526020017f2573206e616d652073657276696365206465706c6f7965640000000000000000815250826200008960201b60201c565b506200076b565b6200012b8282604051602401620000a292919062000701565b6040516020818303038152906040527f4b5c4277000000000000000000000000000000000000000000000000000000007bffffffffffffffffffffffffffffffffffffffffffffffffffffffff19166020820180517bffffffffffffffffffffffffffffffffffffffffffffffffffffffff83818316178352505050506200012f60201b60201c565b5050565b6200015581620001506200015860201b6200076b176200017960201b60201c565b60201c565b50565b60006a636f6e736f6c652e6c6f679050600080835160208501845afa505050565b6200018d60201b62000a0217819050919050565b620001976200073c565b565b6000604051905090565b600080fd5b600080fd5b600080fd5b600080fd5b6000601f19601f8301169050919050565b7f4e487b7100000000000000000000000000000000000000000000000000000000600052604160045260246000fd5b6200020282620001b7565b810181811067ffffffffffffffff82111715620002245762000223620001c8565b5b80604052505050565b60006200023962000199565b9050620002478282620001f7565b919050565b600067ffffffffffffffff8211156200026a5762000269620001c8565b5b6200027582620001b7565b9050602081019050919050565b60005b83811015620002a257808201518184015260208101905062000285565b60008484015250505050565b6000620002c5620002bf846200024c565b6200022d565b905082815260208101848484011115620002e457620002e3620001b2565b5b620002f184828562000282565b509392505050565b600082601f830112620003115762000310620001ad565b5b815162000323848260208601620002ae565b91505092915050565b600060208284031215620003455762000344620001a3565b5b600082015167ffffffffffffffff811115620003665762000365620001a8565b5b6200037484828501620002f9565b91505092915050565b600081519050919050565b7f4e487b7100000000000000000000000000000000000000000000000000000000600052602260045260246000fd5b60006002820490506001821680620003d057607f821691505b602082108103620003e657620003e562000388565b5b50919050565b60008190508160005260206000209050919050565b60006020601f8301049050919050565b600082821b905092915050565b600060088302620004507fffffffffffffffffffffffffffffffffffffffffffffffffffffffffffffffff8262000411565b6200045c868362000411565b95508019841693508086168417925050509392505050565b6000819050919050565b6000819050919050565b6000620004a9620004a36200049d8462000474565b6200047e565b62000474565b9050919050565b6000819050919050565b620004c58362000488565b620004dd620004d482620004b0565b8484546200041e565b825550505050565b600090565b620004f4620004e5565b62000501818484620004ba565b505050565b5b8181101562000529576200051d600082620004ea565b60018101905062000507565b5050565b601f82111562000578576200054281620003ec565b6200054d8462000401565b810160208510156200055d578190505b620005756200056c8562000401565b83018262000506565b50505b505050565b600082821c905092915050565b60006200059d600019846008026200057d565b1980831691505092915050565b6000620005b883836200058a565b9150826002028217905092915050565b620005d3826200037d565b67ffffffffffffffff811115620005ef57620005ee620001c8565b5b620005fb8254620003b7565b620006088282856200052d565b600060209050601f8311600181146200064057600084156200062b578287015190505b620006378582620005aa565b865550620006a7565b601f1984166200065086620003ec565b60005b828110156200067a5784890151825560018201915060208501945060208101905062000653565b868310156200069a578489015162000696601f8916826200058a565b8355505b6001600288020188555050505b505050505050565b600082825260208201905092915050565b6000620006cd826200037d565b620006d98185620006af565b9350620006eb81856020860162000282565b620006f681620001b7565b840191505092915050565b600060408201905081810360008301526200071d8185620006c0565b90508181036020830152620007338184620006c0565b90509392505050565b7f4e487b7100000000000000000000000000000000000000000000000000000000600052605160045260246000fd5b611319806200077b6000396000f3fe60806040526004361061007b5760003560e01c8063bf40fac11161004e578063bf40fac114610162578063c1880a981461019f578063f2c298be146101c8578063fe2c6198146101e45761007b565b806311dd88451461008057806326449235146100bd5780632d551432146100fa578063541e771d14610125575b600080fd5b34801561008c57600080fd5b506100a760048036038101906100a29190610a85565b610221565b6040516100b49190610b62565b60405180910390f35b3480156100c957600080fd5b506100e460048036038101906100df9190610cb4565b6102d4565b6040516100f19190610d3e565b60405180910390f35b34801561010657600080fd5b5061010f61031d565b60405161011c9190610b62565b60405180910390f35b34801561013157600080fd5b5061014c60048036038101906101479190610cb4565b6103ab565b6040516101599190610b62565b60405180910390f35b34801561016e57600080fd5b5061018960048036038101906101849190610a85565b610461565b6040516101969190610d3e565b60405180910390f35b3480156101ab57600080fd5b506101c660048036038101906101c19190610d59565b6104ac565b005b6101e260048036038101906101dd9190610a85565b61055a565b005b3480156101f057600080fd5b5061020b60048036038101906102069190610a85565b6106c7565b6040516102189190610df3565b60405180910390f35b606060028383604051610235929190610e3e565b9081526020016040518091039020805461024e90610e86565b80601f016020809104026020016040519081016040528092919081815260200182805461027a90610e86565b80156102c75780601f1061029c576101008083540402835291602001916102c7565b820191906000526020600020905b8154815290600101906020018083116102aa57829003601f168201915b5050505050905092915050565b6001818051602081018201805184825260208301602085012081835280955050505050506000915054906101000a900473ffffffffffffffffffffffffffffffffffffffff1681565b6000805461032a90610e86565b80601f016020809104026020016040519081016040528092919081815260200182805461035690610e86565b80156103a35780601f10610378576101008083540402835291602001916103a3565b820191906000526020600020905b81548152906001019060200180831161038657829003601f168201915b505050505081565b60028180516020810182018051848252602083016020850120818352809550505050505060009150905080546103e090610e86565b80601f016020809104026020016040519081016040528092919081815260200182805461040c90610e86565b80156104595780601f1061042e57610100808354040283529160200191610459565b820191906000526020600020905b81548152906001019060200180831161043c57829003601f168201915b505050505081565b600060018383604051610475929190610e3e565b908152602001604051809103902060009054906101000a900473ffffffffffffffffffffffffffffffffffffffff16905092915050565b3373ffffffffffffffffffffffffffffffffffffffff16600185856040516104d5929190610e3e565b908152602001604051809103902060009054906101000a900473ffffffffffffffffffffffffffffffffffffffff1673ffffffffffffffffffffffffffffffffffffffff161461052457600080fd5b818160028686604051610538929190610e3e565b9081526020016040518091039020918261055392919061106e565b5050505050565b600073ffffffffffffffffffffffffffffffffffffffff1660018383604051610584929190610e3e565b908152602001604051809103902060009054906101000a900473ffffffffffffffffffffffffffffffffffffffff1673ffffffffffffffffffffffffffffffffffffffff16146105d357600080fd5b60006105df83836106c7565b905080341015610624576040517f08c379a000000000000000000000000000000000000000000000000000000000815260040161061b9061118a565b60405180910390fd5b3360018484604051610637929190610e3e565b908152602001604051809103902060006101000a81548173ffffffffffffffffffffffffffffffffffffffff021916908373ffffffffffffffffffffffffffffffffffffffff1602179055506106c26040518060400160405280601b81526020017f2573206861732072656769737465726564206120646f6d61696e2100000000008152503361078c565b505050565b60008061071784848080601f016020809104026020016040519081016040528093929190818152602001838380828437600081840152601f19601f82011690508083019250505050505050610828565b90506000811161072657600080fd5b6003810361073f576706f05b59d3b20000915050610765565b6004810361075857670429d069189e0000915050610765565b67016345785d8a00009150505b92915050565b60006a636f6e736f6c652e6c6f679050600080835160208501845afa505050565b61082482826040516024016107a29291906111aa565b6040516020818303038152906040527f319af333000000000000000000000000000000000000000000000000000000007bffffffffffffffffffffffffffffffffffffffffffffffffffffffff19166020820180517bffffffffffffffffffffffffffffffffffffffffffffffffffffffff83818316178352505050506109dd565b5050565b60008060008084519050600092505b808210156109d2576000858381518110610854576108536111da565b5b602001015160f81c60f81b9050608060f81b817effffffffffffffffffffffffffffffffffffffffffffffffffffffffffffff191610156108a35760018361089c9190611238565b92506109be565b60e060f81b817effffffffffffffffffffffffffffffffffffffffffffffffffffffffffffff191610156108e5576002836108de9190611238565b92506109bd565b60f060f81b817effffffffffffffffffffffffffffffffffffffffffffffffffffffffffffff19161015610927576003836109209190611238565b92506109bc565b60f8801b817effffffffffffffffffffffffffffffffffffffffffffffffffffffffffffff19161015610968576004836109619190611238565b92506109bb565b60fc60f81b817effffffffffffffffffffffffffffffffffffffffffffffffffffffffffffff191610156109aa576005836109a39190611238565b92506109ba565b6006836109b79190611238565b92505b5b5b5b5b5082806109ca9061126c565b935050610837565b829350505050919050565b6109f4816109ec61076b6109f7565b63ffffffff16565b50565b610a02819050919050565b610a0a6112b4565b565b6000604051905090565b600080fd5b600080fd5b600080fd5b600080fd5b600080fd5b60008083601f840112610a4557610a44610a20565b5b8235905067ffffffffffffffff811115610a6257610a61610a25565b5b602083019150836001820283011115610a7e57610a7d610a2a565b5b9250929050565b60008060208385031215610a9c57610a9b610a16565b5b600083013567ffffffffffffffff811115610aba57610ab9610a1b565b5b610ac685828601610a2f565b92509250509250929050565b600081519050919050565b600082825260208201905092915050565b60005b83811015610b0c578082015181840152602081019050610af1565b60008484015250505050565b6000601f19601f8301169050919050565b6000610b3482610ad2565b610b3e8185610add565b9350610b4e818560208601610aee565b610b5781610b18565b840191505092915050565b60006020820190508181036000830152610b7c8184610b29565b905092915050565b600080fd5b7f4e487b7100000000000000000000000000000000000000000000000000000000600052604160045260246000fd5b610bc182610b18565b810181811067ffffffffffffffff82111715610be057610bdf610b89565b5b80604052505050565b6000610bf3610a0c565b9050610bff8282610bb8565b919050565b600067ffffffffffffffff821115610c1f57610c1e610b89565b5b610c2882610b18565b9050602081019050919050565b82818337600083830152505050565b6000610c57610c5284610c04565b610be9565b905082815260208101848484011115610c7357610c72610b84565b5b610c7e848285610c35565b509392505050565b600082601f830112610c9b57610c9a610a20565b5b8135610cab848260208601610c44565b91505092915050565b600060208284031215610cca57610cc9610a16565b5b600082013567ffffffffffffffff811115610ce857610ce7610a1b565b5b610cf484828501610c86565b91505092915050565b600073ffffffffffffffffffffffffffffffffffffffff82169050919050565b6000610d2882610cfd565b9050919050565b610d3881610d1d565b82525050565b6000602082019050610d536000830184610d2f565b92915050565b60008060008060408587031215610d7357610d72610a16565b5b600085013567ffffffffffffffff811115610d9157610d90610a1b565b5b610d9d87828801610a2f565b9450945050602085013567ffffffffffffffff811115610dc057610dbf610a1b565b5b610dcc87828801610a2f565b925092505092959194509250565b6000819050919050565b610ded81610dda565b82525050565b6000602082019050610e086000830184610de4565b92915050565b600081905092915050565b6000610e258385610e0e565b9350610e32838584610c35565b82840190509392505050565b6000610e4b828486610e19565b91508190509392505050565b7f4e487b7100000000000000000000000000000000000000000000000000000000600052602260045260246000fd5b60006002820490506001821680610e9e57607f821691505b602082108103610eb157610eb0610e57565b5b50919050565b600082905092915050565b60008190508160005260206000209050919050565b60006020601f8301049050919050565b600082821b905092915050565b600060088302610f247fffffffffffffffffffffffffffffffffffffffffffffffffffffffffffffffff82610ee7565b610f2e8683610ee7565b95508019841693508086168417925050509392505050565b6000819050919050565b6000610f6b610f66610f6184610dda565b610f46565b610dda565b9050919050565b6000819050919050565b610f8583610f50565b610f99610f9182610f72565b848454610ef4565b825550505050565b600090565b610fae610fa1565b610fb9818484610f7c565b505050565b5b81811015610fdd57610fd2600082610fa6565b600181019050610fbf565b5050565b601f82111561102257610ff381610ec2565b610ffc84610ed7565b8101602085101561100b578190505b61101f61101785610ed7565b830182610fbe565b50505b505050565b600082821c905092915050565b600061104560001984600802611027565b1980831691505092915050565b600061105e8383611034565b9150826002028217905092915050565b6110788383610eb7565b67ffffffffffffffff81111561109157611090610b89565b5b61109b8254610e86565b6110a6828285610fe1565b6000601f8311600181146110d557600084156110c3578287013590505b6110cd8582611052565b865550611135565b601f1984166110e386610ec2565b60005b8281101561110b578489013582556001820191506020850194506020810190506110e6565b868310156111285784890135611124601f891682611034565b8355505b6001600288020188555050505b50505050505050565b7f4e6f7420656e6f756768204d6174696320706169640000000000000000000000600082015250565b6000611174601583610add565b915061117f8261113e565b602082019050919050565b600060208201905081810360008301526111a381611167565b9050919050565b600060408201905081810360008301526111c48185610b29565b90506111d36020830184610d2f565b9392505050565b7f4e487b7100000000000000000000000000000000000000000000000000000000600052603260045260246000fd5b7f4e487b7100000000000000000000000000000000000000000000000000000000600052601160045260246000fd5b600061124382610dda565b915061124e83610dda565b925082820190508082111561126657611265611209565b5b92915050565b600061127782610dda565b91507fffffffffffffffffffffffffffffffffffffffffffffffffffffffffffffffff82036112a9576112a8611209565b5b600182019050919050565b7f4e487b7100000000000000000000000000000000000000000000000000000000600052605160045260246000fdfea2646970667358221220e92ce40d51bebf3c97373631f3b5b1f966bc0ebe5046b05cafe0f5e4fc4e8e2b64736f6c63430008140033",
  "linkReferences": {},
  "deployedLinkReferences": {}
}