{
  "_format": "hh-sol-artifact-1",
  "contractName": "Domains",
  "sourceName": "contracts/Domains.sol",
  "abi": [
    {
      "inputs": [
        {
          "internalType": "string",
          "name": "_tld",
          "type": "string"
        }
      ],
      "stateMutability": "payable",
      "type": "constructor"
    },
    {
      "inputs": [
        {
          "internalType": "address",
          "name": "sender",
          "type": "address"
        },
        {
          "internalType": "uint256",
          "name": "tokenId",
          "type": "uint256"
        },
        {
          "internalType": "address",
          "name": "owner",
          "type": "address"
        }
      ],
      "name": "ERC721IncorrectOwner",
      "type": "error"
    },
    {
      "inputs": [
        {
          "internalType": "address",
          "name": "operator",
          "type": "address"
        },
        {
          "internalType": "uint256",
          "name": "tokenId",
          "type": "uint256"
        }
      ],
      "name": "ERC721InsufficientApproval",
      "type": "error"
    },
    {
      "inputs": [
        {
          "internalType": "address",
          "name": "approver",
          "type": "address"
        }
      ],
      "name": "ERC721InvalidApprover",
      "type": "error"
    },
    {
      "inputs": [
        {
          "internalType": "address",
          "name": "operator",
          "type": "address"
        }
      ],
      "name": "ERC721InvalidOperator",
      "type": "error"
    },
    {
      "inputs": [
        {
          "internalType": "address",
          "name": "owner",
          "type": "address"
        }
      ],
      "name": "ERC721InvalidOwner",
      "type": "error"
    },
    {
      "inputs": [
        {
          "internalType": "address",
          "name": "receiver",
          "type": "address"
        }
      ],
      "name": "ERC721InvalidReceiver",
      "type": "error"
    },
    {
      "inputs": [
        {
          "internalType": "address",
          "name": "sender",
          "type": "address"
        }
      ],
      "name": "ERC721InvalidSender",
      "type": "error"
    },
    {
      "inputs": [
        {
          "internalType": "uint256",
          "name": "tokenId",
          "type": "uint256"
        }
      ],
      "name": "ERC721NonexistentToken",
      "type": "error"
    },
    {
      "anonymous": false,
      "inputs": [
        {
          "indexed": true,
          "internalType": "address",
          "name": "owner",
          "type": "address"
        },
        {
          "indexed": true,
          "internalType": "address",
          "name": "approved",
          "type": "address"
        },
        {
          "indexed": true,
          "internalType": "uint256",
          "name": "tokenId",
          "type": "uint256"
        }
      ],
      "name": "Approval",
      "type": "event"
    },
    {
      "anonymous": false,
      "inputs": [
        {
          "indexed": true,
          "internalType": "address",
          "name": "owner",
          "type": "address"
        },
        {
          "indexed": true,
          "internalType": "address",
          "name": "operator",
          "type": "address"
        },
        {
          "indexed": false,
          "internalType": "bool",
          "name": "approved",
          "type": "bool"
        }
      ],
      "name": "ApprovalForAll",
      "type": "event"
    },
    {
      "anonymous": false,
      "inputs": [
        {
          "indexed": false,
          "internalType": "uint256",
          "name": "_fromTokenId",
          "type": "uint256"
        },
        {
          "indexed": false,
          "internalType": "uint256",
          "name": "_toTokenId",
          "type": "uint256"
        }
      ],
      "name": "BatchMetadataUpdate",
      "type": "event"
    },
    {
      "anonymous": false,
      "inputs": [
        {
          "indexed": false,
          "internalType": "uint256",
          "name": "_tokenId",
          "type": "uint256"
        }
      ],
      "name": "MetadataUpdate",
      "type": "event"
    },
    {
      "anonymous": false,
      "inputs": [
        {
          "indexed": true,
          "internalType": "address",
          "name": "from",
          "type": "address"
        },
        {
          "indexed": true,
          "internalType": "address",
          "name": "to",
          "type": "address"
        },
        {
          "indexed": true,
          "internalType": "uint256",
          "name": "tokenId",
          "type": "uint256"
        }
      ],
      "name": "Transfer",
      "type": "event"
    },
    {
      "inputs": [
        {
          "internalType": "address",
          "name": "to",
          "type": "address"
        },
        {
          "internalType": "uint256",
          "name": "tokenId",
          "type": "uint256"
        }
      ],
      "name": "approve",
      "outputs": [],
      "stateMutability": "nonpayable",
      "type": "function"
    },
    {
      "inputs": [
        {
          "internalType": "address",
          "name": "owner",
          "type": "address"
        }
      ],
      "name": "balanceOf",
      "outputs": [
        {
          "internalType": "uint256",
          "name": "",
          "type": "uint256"
        }
      ],
      "stateMutability": "view",
      "type": "function"
    },
    {
      "inputs": [
        {
          "internalType": "string",
          "name": "",
          "type": "string"
        }
      ],
      "name": "domains",
      "outputs": [
        {
          "internalType": "address",
          "name": "",
          "type": "address"
        }
      ],
      "stateMutability": "view",
      "type": "function"
    },
    {
      "inputs": [
        {
          "internalType": "string",
          "name": "name",
          "type": "string"
        }
      ],
      "name": "getAddress",
      "outputs": [
        {
          "internalType": "address",
          "name": "",
          "type": "address"
        }
      ],
      "stateMutability": "view",
      "type": "function"
    },
    {
      "inputs": [
        {
          "internalType": "uint256",
          "name": "tokenId",
          "type": "uint256"
        }
      ],
      "name": "getApproved",
      "outputs": [
        {
          "internalType": "address",
          "name": "",
          "type": "address"
        }
      ],
      "stateMutability": "view",
      "type": "function"
    },
    {
      "inputs": [
        {
          "internalType": "string",
          "name": "name",
          "type": "string"
        }
      ],
      "name": "getRecord",
      "outputs": [
        {
          "internalType": "string",
          "name": "",
          "type": "string"
        }
      ],
      "stateMutability": "view",
      "type": "function"
    },
    {
      "inputs": [
        {
          "internalType": "address",
          "name": "owner",
          "type": "address"
        },
        {
          "internalType": "address",
          "name": "operator",
          "type": "address"
        }
      ],
      "name": "isApprovedForAll",
      "outputs": [
        {
          "internalType": "bool",
          "name": "",
          "type": "bool"
        }
      ],
      "stateMutability": "view",
      "type": "function"
    },
    {
      "inputs": [],
      "name": "name",
      "outputs": [
        {
          "internalType": "string",
          "name": "",
          "type": "string"
        }
      ],
      "stateMutability": "view",
      "type": "function"
    },
    {
      "inputs": [
        {
          "internalType": "uint256",
          "name": "tokenId",
          "type": "uint256"
        }
      ],
      "name": "ownerOf",
      "outputs": [
        {
          "internalType": "address",
          "name": "",
          "type": "address"
        }
      ],
      "stateMutability": "view",
      "type": "function"
    },
    {
      "inputs": [
        {
          "internalType": "string",
          "name": "name",
          "type": "string"
        }
      ],
      "name": "price",
      "outputs": [
        {
          "internalType": "uint256",
          "name": "",
          "type": "uint256"
        }
      ],
      "stateMutability": "pure",
      "type": "function"
    },
    {
      "inputs": [
        {
          "internalType": "string",
          "name": "",
          "type": "string"
        }
      ],
      "name": "records",
      "outputs": [
        {
          "internalType": "string",
          "name": "",
          "type": "string"
        }
      ],
      "stateMutability": "view",
      "type": "function"
    },
    {
      "inputs": [
        {
          "internalType": "string",
          "name": "name",
          "type": "string"
        }
      ],
      "name": "register",
      "outputs": [],
      "stateMutability": "payable",
      "type": "function"
    },
    {
      "inputs": [
        {
          "internalType": "address",
          "name": "from",
          "type": "address"
        },
        {
          "internalType": "address",
          "name": "to",
          "type": "address"
        },
        {
          "internalType": "uint256",
          "name": "tokenId",
          "type": "uint256"
        }
      ],
      "name": "safeTransferFrom",
      "outputs": [],
      "stateMutability": "nonpayable",
      "type": "function"
    },
    {
      "inputs": [
        {
          "internalType": "address",
          "name": "from",
          "type": "address"
        },
        {
          "internalType": "address",
          "name": "to",
          "type": "address"
        },
        {
          "internalType": "uint256",
          "name": "tokenId",
          "type": "uint256"
        },
        {
          "internalType": "bytes",
          "name": "data",
          "type": "bytes"
        }
      ],
      "name": "safeTransferFrom",
      "outputs": [],
      "stateMutability": "nonpayable",
      "type": "function"
    },
    {
      "inputs": [
        {
          "internalType": "address",
          "name": "operator",
          "type": "address"
        },
        {
          "internalType": "bool",
          "name": "approved",
          "type": "bool"
        }
      ],
      "name": "setApprovalForAll",
      "outputs": [],
      "stateMutability": "nonpayable",
      "type": "function"
    },
    {
      "inputs": [
        {
          "internalType": "string",
          "name": "name",
          "type": "string"
        },
        {
          "internalType": "string",
          "name": "record",
          "type": "string"
        }
      ],
      "name": "setRecord",
      "outputs": [],
      "stateMutability": "nonpayable",
      "type": "function"
    },
    {
      "inputs": [
        {
          "internalType": "bytes4",
          "name": "interfaceId",
          "type": "bytes4"
        }
      ],
      "name": "supportsInterface",
      "outputs": [
        {
          "internalType": "bool",
          "name": "",
          "type": "bool"
        }
      ],
      "stateMutability": "view",
      "type": "function"
    },
    {
      "inputs": [],
      "name": "symbol",
      "outputs": [
        {
          "internalType": "string",
          "name": "",
          "type": "string"
        }
      ],
      "stateMutability": "view",
      "type": "function"
    },
    {
      "inputs": [],
      "name": "tld",
      "outputs": [
        {
          "internalType": "string",
          "name": "",
          "type": "string"
        }
      ],
      "stateMutability": "view",
      "type": "function"
    },
    {
      "inputs": [
        {
          "internalType": "uint256",
          "name": "tokenId",
          "type": "uint256"
        }
      ],
      "name": "tokenURI",
      "outputs": [
        {
          "internalType": "string",
          "name": "",
          "type": "string"
        }
      ],
      "stateMutability": "view",
      "type": "function"
    },
    {
      "inputs": [
        {
          "internalType": "address",
          "name": "from",
          "type": "address"
        },
        {
          "internalType": "address",
          "name": "to",
          "type": "address"
        },
        {
          "internalType": "uint256",
          "name": "tokenId",
          "type": "uint256"
        }
      ],
      "name": "transferFrom",
      "outputs": [],
      "stateMutability": "nonpayable",
      "type": "function"
    }
  ],
  "bytecode": "0x6080604052604051806108a0016040528061086b81526020016200444161086b9139600990816200003191906200051a565b506040518060400160405280600d81526020017f3c2f746578743e3c2f7376673e00000000000000000000000000000000000000815250600a90816200007891906200051a565b5060405162004cac38038062004cac83398181016040528101906200009e919062000765565b6040518060400160405280601281526020017f4e696e6a61204e616d65205365727669636500000000000000000000000000008152506040518060400160405280600381526020017f4e4e53000000000000000000000000000000000000000000000000000000000081525081600090816200011b91906200051a565b5080600190816200012d91906200051a565b50505080600890816200014191906200051a565b50620001896040518060400160405280601881526020017f2573206e616d652073657276696365206465706c6f7965640000000000000000815250826200019060201b60201c565b5062000872565b620002328282604051602401620001a992919062000808565b6040516020818303038152906040527f4b5c4277000000000000000000000000000000000000000000000000000000007bffffffffffffffffffffffffffffffffffffffffffffffffffffffff19166020820180517bffffffffffffffffffffffffffffffffffffffffffffffffffffffff83818316178352505050506200023660201b60201c565b5050565b6200025c81620002576200025f60201b62001295176200028060201b60201c565b60201c565b50565b60006a636f6e736f6c652e6c6f679050600080835160208501845afa505050565b6200029460201b6200271017819050919050565b6200029e62000843565b565b600081519050919050565b7f4e487b7100000000000000000000000000000000000000000000000000000000600052604160045260246000fd5b7f4e487b7100000000000000000000000000000000000000000000000000000000600052602260045260246000fd5b600060028204905060018216806200032257607f821691505b602082108103620003385762000337620002da565b5b50919050565b60008190508160005260206000209050919050565b60006020601f8301049050919050565b600082821b905092915050565b600060088302620003a27fffffffffffffffffffffffffffffffffffffffffffffffffffffffffffffffff8262000363565b620003ae868362000363565b95508019841693508086168417925050509392505050565b6000819050919050565b6000819050919050565b6000620003fb620003f5620003ef84620003c6565b620003d0565b620003c6565b9050919050565b6000819050919050565b6200041783620003da565b6200042f620004268262000402565b84845462000370565b825550505050565b600090565b6200044662000437565b620004538184846200040c565b505050565b5b818110156200047b576200046f6000826200043c565b60018101905062000459565b5050565b601f821115620004ca5762000494816200033e565b6200049f8462000353565b81016020851015620004af578190505b620004c7620004be8562000353565b83018262000458565b50505b505050565b600082821c905092915050565b6000620004ef60001984600802620004cf565b1980831691505092915050565b60006200050a8383620004dc565b9150826002028217905092915050565b6200052582620002a0565b67ffffffffffffffff811115620005415762000540620002ab565b5b6200054d825462000309565b6200055a8282856200047f565b600060209050601f8311600181146200059257600084156200057d578287015190505b620005898582620004fc565b865550620005f9565b601f198416620005a2866200033e565b60005b82811015620005cc57848901518255600182019150602085019450602081019050620005a5565b86831015620005ec5784890151620005e8601f891682620004dc565b8355505b6001600288020188555050505b505050505050565b6000604051905090565b600080fd5b600080fd5b600080fd5b600080fd5b6000601f19601f8301169050919050565b6200063b826200061f565b810181811067ffffffffffffffff821117156200065d576200065c620002ab565b5b80604052505050565b60006200067262000601565b905062000680828262000630565b919050565b600067ffffffffffffffff821115620006a357620006a2620002ab565b5b620006ae826200061f565b9050602081019050919050565b60005b83811015620006db578082015181840152602081019050620006be565b60008484015250505050565b6000620006fe620006f88462000685565b62000666565b9050828152602081018484840111156200071d576200071c6200061a565b5b6200072a848285620006bb565b509392505050565b600082601f8301126200074a576200074962000615565b5b81516200075c848260208601620006e7565b91505092915050565b6000602082840312156200077e576200077d6200060b565b5b600082015167ffffffffffffffff8111156200079f576200079e62000610565b5b620007ad8482850162000732565b91505092915050565b600082825260208201905092915050565b6000620007d482620002a0565b620007e08185620007b6565b9350620007f2818560208601620006bb565b620007fd816200061f565b840191505092915050565b60006040820190508181036000830152620008248185620007c7565b905081810360208301526200083a8184620007c7565b90509392505050565b7f4e487b7100000000000000000000000000000000000000000000000000000000600052605160045260246000fd5b613bbf80620008826000396000f3fe60806040526004361061012a5760003560e01c80636352211e116100ab578063bf40fac11161006f578063bf40fac114610428578063c1880a9814610465578063c87b56dd1461048e578063e985e9c5146104cb578063f2c298be14610508578063fe2c6198146105245761012a565b80636352211e1461033157806370a082311461036e57806395d89b41146103ab578063a22cb465146103d6578063b88d4fde146103ff5761012a565b806323b872dd116100f257806323b872dd1461023a57806326449235146102635780632d551432146102a057806342842e0e146102cb578063541e771d146102f45761012a565b806301ffc9a71461012f57806306fdde031461016c578063081812fc14610197578063095ea7b3146101d457806311dd8845146101fd575b600080fd5b34801561013b57600080fd5b5061015660048036038101906101519190612786565b610561565b60405161016391906127ce565b60405180910390f35b34801561017857600080fd5b506101816105c2565b60405161018e9190612879565b60405180910390f35b3480156101a357600080fd5b506101be60048036038101906101b991906128d1565b610654565b6040516101cb919061293f565b60405180910390f35b3480156101e057600080fd5b506101fb60048036038101906101f69190612986565b610670565b005b34801561020957600080fd5b50610224600480360381019061021f9190612a2b565b610686565b6040516102319190612879565b60405180910390f35b34801561024657600080fd5b50610261600480360381019061025c9190612a78565b610739565b005b34801561026f57600080fd5b5061028a60048036038101906102859190612bfb565b61083b565b604051610297919061293f565b60405180910390f35b3480156102ac57600080fd5b506102b5610884565b6040516102c29190612879565b60405180910390f35b3480156102d757600080fd5b506102f260048036038101906102ed9190612a78565b610912565b005b34801561030057600080fd5b5061031b60048036038101906103169190612bfb565b610932565b6040516103289190612879565b60405180910390f35b34801561033d57600080fd5b50610358600480360381019061035391906128d1565b6109e8565b604051610365919061293f565b60405180910390f35b34801561037a57600080fd5b5061039560048036038101906103909190612c44565b6109fa565b6040516103a29190612c80565b60405180910390f35b3480156103b757600080fd5b506103c0610ab4565b6040516103cd9190612879565b60405180910390f35b3480156103e257600080fd5b506103fd60048036038101906103f89190612cc7565b610b46565b005b34801561040b57600080fd5b5061042660048036038101906104219190612da8565b610b5c565b005b34801561043457600080fd5b5061044f600480360381019061044a9190612a2b565b610b79565b60405161045c919061293f565b60405180910390f35b34801561047157600080fd5b5061048c60048036038101906104879190612e2b565b610bc4565b005b34801561049a57600080fd5b506104b560048036038101906104b091906128d1565b610c72565b6040516104c29190612879565b60405180910390f35b3480156104d757600080fd5b506104f260048036038101906104ed9190612eac565b610d85565b6040516104ff91906127ce565b60405180910390f35b610522600480360381019061051d9190612a2b565b610e19565b005b34801561053057600080fd5b5061054b60048036038101906105469190612a2b565b6111fa565b6040516105589190612c80565b60405180910390f35b6000634906490660e01b7bffffffffffffffffffffffffffffffffffffffffffffffffffffffff1916827bffffffffffffffffffffffffffffffffffffffffffffffffffffffff191614806105bb57506105ba826112b6565b5b9050919050565b6060600080546105d190612f1b565b80601f01602080910402602001604051908101604052809291908181526020018280546105fd90612f1b565b801561064a5780601f1061061f5761010080835404028352916020019161064a565b820191906000526020600020905b81548152906001019060200180831161062d57829003601f168201915b5050505050905090565b600061065f82611398565b5061066982611420565b9050919050565b610682828261067d61145d565b611465565b5050565b6060600c838360405161069a929190612f7c565b908152602001604051809103902080546106b390612f1b565b80601f01602080910402602001604051908101604052809291908181526020018280546106df90612f1b565b801561072c5780601f106107015761010080835404028352916020019161072c565b820191906000526020600020905b81548152906001019060200180831161070f57829003601f168201915b5050505050905092915050565b600073ffffffffffffffffffffffffffffffffffffffff168273ffffffffffffffffffffffffffffffffffffffff16036107ab5760006040517f64a0ae920000000000000000000000000000000000000000000000000000000081526004016107a2919061293f565b60405180910390fd5b60006107bf83836107ba61145d565b611477565b90508373ffffffffffffffffffffffffffffffffffffffff168173ffffffffffffffffffffffffffffffffffffffff1614610835578382826040517f64283d7b00000000000000000000000000000000000000000000000000000000815260040161082c93929190612f95565b60405180910390fd5b50505050565b600b818051602081018201805184825260208301602085012081835280955050505050506000915054906101000a900473ffffffffffffffffffffffffffffffffffffffff1681565b6008805461089190612f1b565b80601f01602080910402602001604051908101604052809291908181526020018280546108bd90612f1b565b801561090a5780601f106108df5761010080835404028352916020019161090a565b820191906000526020600020905b8154815290600101906020018083116108ed57829003601f168201915b505050505081565b61092d83838360405180602001604052806000815250610b5c565b505050565b600c81805160208101820180518482526020830160208501208183528095505050505050600091509050805461096790612f1b565b80601f016020809104026020016040519081016040528092919081815260200182805461099390612f1b565b80156109e05780601f106109b5576101008083540402835291602001916109e0565b820191906000526020600020905b8154815290600101906020018083116109c357829003601f168201915b505050505081565b60006109f382611398565b9050919050565b60008073ffffffffffffffffffffffffffffffffffffffff168273ffffffffffffffffffffffffffffffffffffffff1603610a6d5760006040517f89c62b64000000000000000000000000000000000000000000000000000000008152600401610a64919061293f565b60405180910390fd5b600360008373ffffffffffffffffffffffffffffffffffffffff1673ffffffffffffffffffffffffffffffffffffffff168152602001908152602001600020549050919050565b606060018054610ac390612f1b565b80601f0160208091040260200160405190810160405280929190818152602001828054610aef90612f1b565b8015610b3c5780601f10610b1157610100808354040283529160200191610b3c565b820191906000526020600020905b815481529060010190602001808311610b1f57829003601f168201915b5050505050905090565b610b58610b5161145d565b8383611691565b5050565b610b67848484610739565b610b7384848484611800565b50505050565b6000600b8383604051610b8d929190612f7c565b908152602001604051809103902060009054906101000a900473ffffffffffffffffffffffffffffffffffffffff16905092915050565b3373ffffffffffffffffffffffffffffffffffffffff16600b8585604051610bed929190612f7c565b908152602001604051809103902060009054906101000a900473ffffffffffffffffffffffffffffffffffffffff1673ffffffffffffffffffffffffffffffffffffffff1614610c3c57600080fd5b8181600c8686604051610c50929190612f7c565b90815260200160405180910390209182610c6b929190613183565b5050505050565b6060610c7d82611398565b506000600660008481526020019081526020016000208054610c9e90612f1b565b80601f0160208091040260200160405190810160405280929190818152602001828054610cca90612f1b565b8015610d175780601f10610cec57610100808354040283529160200191610d17565b820191906000526020600020905b815481529060010190602001808311610cfa57829003601f168201915b505050505090506000610d286119b7565b90506000815103610d3d578192505050610d80565b600082511115610d72578082604051602001610d5a929190613284565b60405160208183030381529060405292505050610d80565b610d7b846119ce565b925050505b919050565b6000600560008473ffffffffffffffffffffffffffffffffffffffff1673ffffffffffffffffffffffffffffffffffffffff16815260200190815260200160002060008373ffffffffffffffffffffffffffffffffffffffff1673ffffffffffffffffffffffffffffffffffffffff16815260200190815260200160002060009054906101000a900460ff16905092915050565b600073ffffffffffffffffffffffffffffffffffffffff16600b8383604051610e43929190612f7c565b908152602001604051809103902060009054906101000a900473ffffffffffffffffffffffffffffffffffffffff1673ffffffffffffffffffffffffffffffffffffffff1614610e9257600080fd5b6000610e9e83836111fa565b905080341015610ee3576040517f08c379a0000000000000000000000000000000000000000000000000000000008152600401610eda906132f4565b60405180910390fd5b600083836008604051602001610efb939291906133e3565b60405160208183030381529060405290506000600982600a604051602001610f2593929190613414565b60405160208183030381529060405290506000610f426007611a37565b90506000610f9387878080601f016020809104026020016040519081016040528093929190818152602001838380828437600081840152601f19601f82011690508083019250505050505050611a45565b90506000610fa082611bfa565b9050611094604051806060016040528060318152602001613ae06031913989898080601f016020809104026020016040519081016040528093929190818152602001838380828437600081840152601f19601f820116905080830192505050505050506008805461101090612f1b565b80601f016020809104026020016040519081016040528092919081815260200182805461103c90612f1b565b80156110895780601f1061105e57610100808354040283529160200191611089565b820191906000526020600020905b81548152906001019060200180831161106c57829003601f168201915b505050505086611cc8565b60006110ca866110a387611d6a565b846040516020016110b6939291906135c1565b604051602081830303815290604052611d6a565b90506000816040516020016110df919061366a565b6040516020818303038152906040529050611111604051806060016040528060398152602001613aa760399139611ecd565b6111506040518060400160405280600e81526020017f46696e616c20746f6b656e55524900000000000000000000000000000000000081525082611f66565b611171604051806060016040528060398152602001613b1160399139611ecd565b61117b3386612002565b6111858582612020565b33600b8b8b604051611198929190612f7c565b908152602001604051809103902060006101000a81548173ffffffffffffffffffffffffffffffffffffffff021916908373ffffffffffffffffffffffffffffffffffffffff1602179055506111ee600761207c565b50505050505050505050565b60008061124a84848080601f016020809104026020016040519081016040528093929190818152602001838380828437600081840152601f19601f82011690508083019250505050505050611a45565b90506000811161125957600080fd5b6003810361126f57640ba43b740091505061128f565b60048103611285576406fc23ac0091505061128f565b6402540be4009150505b92915050565b60006a636f6e736f6c652e6c6f679050600080835160208501845afa505050565b60007f80ac58cd000000000000000000000000000000000000000000000000000000007bffffffffffffffffffffffffffffffffffffffffffffffffffffffff1916827bffffffffffffffffffffffffffffffffffffffffffffffffffffffff1916148061138157507f5b5e139f000000000000000000000000000000000000000000000000000000007bffffffffffffffffffffffffffffffffffffffffffffffffffffffff1916827bffffffffffffffffffffffffffffffffffffffffffffffffffffffff1916145b80611391575061139082612092565b5b9050919050565b6000806113a4836120fc565b9050600073ffffffffffffffffffffffffffffffffffffffff168173ffffffffffffffffffffffffffffffffffffffff160361141757826040517f7e27328900000000000000000000000000000000000000000000000000000000815260040161140e9190612c80565b60405180910390fd5b80915050919050565b60006004600083815260200190815260200160002060009054906101000a900473ffffffffffffffffffffffffffffffffffffffff169050919050565b600033905090565b6114728383836001612139565b505050565b600080611483846120fc565b9050600073ffffffffffffffffffffffffffffffffffffffff168373ffffffffffffffffffffffffffffffffffffffff16146114c5576114c48184866122fe565b5b600073ffffffffffffffffffffffffffffffffffffffff168173ffffffffffffffffffffffffffffffffffffffff161461155657611507600085600080612139565b6001600360008373ffffffffffffffffffffffffffffffffffffffff1673ffffffffffffffffffffffffffffffffffffffff168152602001908152602001600020600082825403925050819055505b600073ffffffffffffffffffffffffffffffffffffffff168573ffffffffffffffffffffffffffffffffffffffff16146115d9576001600360008773ffffffffffffffffffffffffffffffffffffffff1673ffffffffffffffffffffffffffffffffffffffff168152602001908152602001600020600082825401925050819055505b846002600086815260200190815260200160002060006101000a81548173ffffffffffffffffffffffffffffffffffffffff021916908373ffffffffffffffffffffffffffffffffffffffff160217905550838573ffffffffffffffffffffffffffffffffffffffff168273ffffffffffffffffffffffffffffffffffffffff167fddf252ad1be2c89b69c2b068fc378daa952ba7f163c4a11628f55a4df523b3ef60405160405180910390a4809150509392505050565b600073ffffffffffffffffffffffffffffffffffffffff168273ffffffffffffffffffffffffffffffffffffffff160361170257816040517f5b08ba180000000000000000000000000000000000000000000000000000000081526004016116f9919061293f565b60405180910390fd5b80600560008573ffffffffffffffffffffffffffffffffffffffff1673ffffffffffffffffffffffffffffffffffffffff16815260200190815260200160002060008473ffffffffffffffffffffffffffffffffffffffff1673ffffffffffffffffffffffffffffffffffffffff16815260200190815260200160002060006101000a81548160ff0219169083151502179055508173ffffffffffffffffffffffffffffffffffffffff168373ffffffffffffffffffffffffffffffffffffffff167f17307eab39ab6107e8899845ad3d59bd9653f200f220920489ca2b5937696c31836040516117f391906127ce565b60405180910390a3505050565b60008373ffffffffffffffffffffffffffffffffffffffff163b11156119b1578273ffffffffffffffffffffffffffffffffffffffff1663150b7a0261184461145d565b8685856040518563ffffffff1660e01b815260040161186694939291906136e1565b6020604051808303816000875af19250505080156118a257506040513d601f19601f8201168201806040525081019061189f9190613742565b60015b611926573d80600081146118d2576040519150601f19603f3d011682016040523d82523d6000602084013e6118d7565b606091505b50600081510361191e57836040517f64a0ae92000000000000000000000000000000000000000000000000000000008152600401611915919061293f565b60405180910390fd5b805181602001fd5b63150b7a0260e01b7bffffffffffffffffffffffffffffffffffffffffffffffffffffffff1916817bffffffffffffffffffffffffffffffffffffffffffffffffffffffff1916146119af57836040517f64a0ae920000000000000000000000000000000000000000000000000000000081526004016119a6919061293f565b60405180910390fd5b505b50505050565b606060405180602001604052806000815250905090565b60606119d982611398565b5060006119e46119b7565b90506000815111611a045760405180602001604052806000815250611a2f565b80611a0e84611bfa565b604051602001611a1f929190613284565b6040516020818303038152906040525b915050919050565b600081600001549050919050565b60008060008084519050600092505b80821015611bef576000858381518110611a7157611a7061376f565b5b602001015160f81c60f81b9050608060f81b817effffffffffffffffffffffffffffffffffffffffffffffffffffffffffffff19161015611ac057600183611ab991906137cd565b9250611bdb565b60e060f81b817effffffffffffffffffffffffffffffffffffffffffffffffffffffffffffff19161015611b0257600283611afb91906137cd565b9250611bda565b60f060f81b817effffffffffffffffffffffffffffffffffffffffffffffffffffffffffffff19161015611b4457600383611b3d91906137cd565b9250611bd9565b60f8801b817effffffffffffffffffffffffffffffffffffffffffffffffffffffffffffff19161015611b8557600483611b7e91906137cd565b9250611bd8565b60fc60f81b817effffffffffffffffffffffffffffffffffffffffffffffffffffffffffffff19161015611bc757600583611bc091906137cd565b9250611bd7565b600683611bd491906137cd565b92505b5b5b5b5b508280611be790613801565b935050611a54565b829350505050919050565b606060006001611c09846123c2565b01905060008167ffffffffffffffff811115611c2857611c27612ad0565b5b6040519080825280601f01601f191660200182016040528015611c5a5781602001600182028036833780820191505090505b509050600082602001820190505b600115611cbd578080600190039150507f3031323334353637383961626364656600000000000000000000000000000000600a86061a8153600a8581611cb157611cb0613849565b5b04945060008503611c68575b819350505050919050565b611d6484848484604051602401611ce29493929190613878565b6040516020818303038152906040527f8eafb02b000000000000000000000000000000000000000000000000000000007bffffffffffffffffffffffffffffffffffffffffffffffffffffffff19166020820180517bffffffffffffffffffffffffffffffffffffffffffffffffffffffff8381831617835250505050612515565b50505050565b60606000825103611d8c57604051806020016040528060008152509050611ec8565b6000604051806060016040528060408152602001613b4a6040913990506000600360028551611dbb91906137cd565b611dc591906138d2565b6004611dd19190613903565b67ffffffffffffffff811115611dea57611de9612ad0565b5b6040519080825280601f01601f191660200182016040528015611e1c5781602001600182028036833780820191505090505b509050600182016020820185865187015b80821015611e88576003820191508151603f8160121c168501518453600184019350603f81600c1c168501518453600184019350603f8160061c168501518453600184019350603f8116850151845360018401935050611e2d565b5050600386510660018114611ea45760028114611eb757611ebf565b603d6001830353603d6002830353611ebf565b603d60018303535b50505080925050505b919050565b611f6381604051602401611ee19190612879565b6040516020818303038152906040527f41304fac000000000000000000000000000000000000000000000000000000007bffffffffffffffffffffffffffffffffffffffffffffffffffffffff19166020820180517bffffffffffffffffffffffffffffffffffffffffffffffffffffffff8381831617835250505050612515565b50565b611ffe8282604051602401611f7c929190613945565b6040516020818303038152906040527f4b5c4277000000000000000000000000000000000000000000000000000000007bffffffffffffffffffffffffffffffffffffffffffffffffffffffff19166020820180517bffffffffffffffffffffffffffffffffffffffffffffffffffffffff8381831617835250505050612515565b5050565b61201c82826040518060200160405280600081525061252f565b5050565b80600660008481526020019081526020016000209081612040919061397c565b507ff8e1a15aba9398e019f0b49df1a4fde98ee17ae345cb5f6b5e2c27f5033e8ce7826040516120709190612c80565b60405180910390a15050565b6001816000016000828254019250508190555050565b60007f01ffc9a7000000000000000000000000000000000000000000000000000000007bffffffffffffffffffffffffffffffffffffffffffffffffffffffff1916827bffffffffffffffffffffffffffffffffffffffffffffffffffffffff1916149050919050565b60006002600083815260200190815260200160002060009054906101000a900473ffffffffffffffffffffffffffffffffffffffff169050919050565b80806121725750600073ffffffffffffffffffffffffffffffffffffffff168273ffffffffffffffffffffffffffffffffffffffff1614155b156122a657600061218284611398565b9050600073ffffffffffffffffffffffffffffffffffffffff168373ffffffffffffffffffffffffffffffffffffffff16141580156121ed57508273ffffffffffffffffffffffffffffffffffffffff168173ffffffffffffffffffffffffffffffffffffffff1614155b801561220057506121fe8184610d85565b155b1561224257826040517fa9fbf51f000000000000000000000000000000000000000000000000000000008152600401612239919061293f565b60405180910390fd5b81156122a457838573ffffffffffffffffffffffffffffffffffffffff168273ffffffffffffffffffffffffffffffffffffffff167f8c5be1e5ebec7d5bd14f71427d1e84f3dd0314c0f7b2291e5b200ac8c7c3b92560405160405180910390a45b505b836004600085815260200190815260200160002060006101000a81548173ffffffffffffffffffffffffffffffffffffffff021916908373ffffffffffffffffffffffffffffffffffffffff16021790555050505050565b61230983838361254b565b6123bd57600073ffffffffffffffffffffffffffffffffffffffff168373ffffffffffffffffffffffffffffffffffffffff160361237e57806040517f7e2732890000000000000000000000000000000000000000000000000000000081526004016123759190612c80565b60405180910390fd5b81816040517f177e802f0000000000000000000000000000000000000000000000000000000081526004016123b4929190613a4e565b60405180910390fd5b505050565b600080600090507a184f03e93ff9f4daa797ed6e38ed64bf6a1f0100000000000000008310612420577a184f03e93ff9f4daa797ed6e38ed64bf6a1f010000000000000000838161241657612415613849565b5b0492506040810190505b6d04ee2d6d415b85acef8100000000831061245d576d04ee2d6d415b85acef8100000000838161245357612452613849565b5b0492506020810190505b662386f26fc10000831061248c57662386f26fc10000838161248257612481613849565b5b0492506010810190505b6305f5e10083106124b5576305f5e10083816124ab576124aa613849565b5b0492506008810190505b61271083106124da5761271083816124d0576124cf613849565b5b0492506004810190505b606483106124fd57606483816124f3576124f2613849565b5b0492506002810190505b600a831061250c576001810190505b80915050919050565b61252c8161252461129561260c565b63ffffffff16565b50565b6125398383612617565b6125466000848484611800565b505050565b60008073ffffffffffffffffffffffffffffffffffffffff168373ffffffffffffffffffffffffffffffffffffffff161415801561260357508273ffffffffffffffffffffffffffffffffffffffff168473ffffffffffffffffffffffffffffffffffffffff1614806125c457506125c38484610d85565b5b8061260257508273ffffffffffffffffffffffffffffffffffffffff166125ea83611420565b73ffffffffffffffffffffffffffffffffffffffff16145b5b90509392505050565b612710819050919050565b600073ffffffffffffffffffffffffffffffffffffffff168273ffffffffffffffffffffffffffffffffffffffff16036126895760006040517f64a0ae92000000000000000000000000000000000000000000000000000000008152600401612680919061293f565b60405180910390fd5b600061269783836000611477565b9050600073ffffffffffffffffffffffffffffffffffffffff168173ffffffffffffffffffffffffffffffffffffffff161461270b5760006040517f73c6ac6e000000000000000000000000000000000000000000000000000000008152600401612702919061293f565b60405180910390fd5b505050565b612718613a77565b565b6000604051905090565b600080fd5b600080fd5b60007fffffffff0000000000000000000000000000000000000000000000000000000082169050919050565b6127638161272e565b811461276e57600080fd5b50565b6000813590506127808161275a565b92915050565b60006020828403121561279c5761279b612724565b5b60006127aa84828501612771565b91505092915050565b60008115159050919050565b6127c8816127b3565b82525050565b60006020820190506127e360008301846127bf565b92915050565b600081519050919050565b600082825260208201905092915050565b60005b83811015612823578082015181840152602081019050612808565b60008484015250505050565b6000601f19601f8301169050919050565b600061284b826127e9565b61285581856127f4565b9350612865818560208601612805565b61286e8161282f565b840191505092915050565b600060208201905081810360008301526128938184612840565b905092915050565b6000819050919050565b6128ae8161289b565b81146128b957600080fd5b50565b6000813590506128cb816128a5565b92915050565b6000602082840312156128e7576128e6612724565b5b60006128f5848285016128bc565b91505092915050565b600073ffffffffffffffffffffffffffffffffffffffff82169050919050565b6000612929826128fe565b9050919050565b6129398161291e565b82525050565b60006020820190506129546000830184612930565b92915050565b6129638161291e565b811461296e57600080fd5b50565b6000813590506129808161295a565b92915050565b6000806040838503121561299d5761299c612724565b5b60006129ab85828601612971565b92505060206129bc858286016128bc565b9150509250929050565b600080fd5b600080fd5b600080fd5b60008083601f8401126129eb576129ea6129c6565b5b8235905067ffffffffffffffff811115612a0857612a076129cb565b5b602083019150836001820283011115612a2457612a236129d0565b5b9250929050565b60008060208385031215612a4257612a41612724565b5b600083013567ffffffffffffffff811115612a6057612a5f612729565b5b612a6c858286016129d5565b92509250509250929050565b600080600060608486031215612a9157612a90612724565b5b6000612a9f86828701612971565b9350506020612ab086828701612971565b9250506040612ac1868287016128bc565b9150509250925092565b600080fd5b7f4e487b7100000000000000000000000000000000000000000000000000000000600052604160045260246000fd5b612b088261282f565b810181811067ffffffffffffffff82111715612b2757612b26612ad0565b5b80604052505050565b6000612b3a61271a565b9050612b468282612aff565b919050565b600067ffffffffffffffff821115612b6657612b65612ad0565b5b612b6f8261282f565b9050602081019050919050565b82818337600083830152505050565b6000612b9e612b9984612b4b565b612b30565b905082815260208101848484011115612bba57612bb9612acb565b5b612bc5848285612b7c565b509392505050565b600082601f830112612be257612be16129c6565b5b8135612bf2848260208601612b8b565b91505092915050565b600060208284031215612c1157612c10612724565b5b600082013567ffffffffffffffff811115612c2f57612c2e612729565b5b612c3b84828501612bcd565b91505092915050565b600060208284031215612c5a57612c59612724565b5b6000612c6884828501612971565b91505092915050565b612c7a8161289b565b82525050565b6000602082019050612c956000830184612c71565b92915050565b612ca4816127b3565b8114612caf57600080fd5b50565b600081359050612cc181612c9b565b92915050565b60008060408385031215612cde57612cdd612724565b5b6000612cec85828601612971565b9250506020612cfd85828601612cb2565b9150509250929050565b600067ffffffffffffffff821115612d2257612d21612ad0565b5b612d2b8261282f565b9050602081019050919050565b6000612d4b612d4684612d07565b612b30565b905082815260208101848484011115612d6757612d66612acb565b5b612d72848285612b7c565b509392505050565b600082601f830112612d8f57612d8e6129c6565b5b8135612d9f848260208601612d38565b91505092915050565b60008060008060808587031215612dc257612dc1612724565b5b6000612dd087828801612971565b9450506020612de187828801612971565b9350506040612df2878288016128bc565b925050606085013567ffffffffffffffff811115612e1357612e12612729565b5b612e1f87828801612d7a565b91505092959194509250565b60008060008060408587031215612e4557612e44612724565b5b600085013567ffffffffffffffff811115612e6357612e62612729565b5b612e6f878288016129d5565b9450945050602085013567ffffffffffffffff811115612e9257612e91612729565b5b612e9e878288016129d5565b925092505092959194509250565b60008060408385031215612ec357612ec2612724565b5b6000612ed185828601612971565b9250506020612ee285828601612971565b9150509250929050565b7f4e487b7100000000000000000000000000000000000000000000000000000000600052602260045260246000fd5b60006002820490506001821680612f3357607f821691505b602082108103612f4657612f45612eec565b5b50919050565b600081905092915050565b6000612f638385612f4c565b9350612f70838584612b7c565b82840190509392505050565b6000612f89828486612f57565b91508190509392505050565b6000606082019050612faa6000830186612930565b612fb76020830185612c71565b612fc46040830184612930565b949350505050565b600082905092915050565b60008190508160005260206000209050919050565b60006020601f8301049050919050565b600082821b905092915050565b6000600883026130397fffffffffffffffffffffffffffffffffffffffffffffffffffffffffffffffff82612ffc565b6130438683612ffc565b95508019841693508086168417925050509392505050565b6000819050919050565b600061308061307b6130768461289b565b61305b565b61289b565b9050919050565b6000819050919050565b61309a83613065565b6130ae6130a682613087565b848454613009565b825550505050565b600090565b6130c36130b6565b6130ce818484613091565b505050565b5b818110156130f2576130e76000826130bb565b6001810190506130d4565b5050565b601f8211156131375761310881612fd7565b61311184612fec565b81016020851015613120578190505b61313461312c85612fec565b8301826130d3565b50505b505050565b600082821c905092915050565b600061315a6000198460080261313c565b1980831691505092915050565b60006131738383613149565b9150826002028217905092915050565b61318d8383612fcc565b67ffffffffffffffff8111156131a6576131a5612ad0565b5b6131b08254612f1b565b6131bb8282856130f6565b6000601f8311600181146131ea57600084156131d8578287013590505b6131e28582613167565b86555061324a565b601f1984166131f886612fd7565b60005b82811015613220578489013582556001820191506020850194506020810190506131fb565b8683101561323d5784890135613239601f891682613149565b8355505b6001600288020188555050505b50505050505050565b600061325e826127e9565b6132688185612f4c565b9350613278818560208601612805565b80840191505092915050565b60006132908285613253565b915061329c8284613253565b91508190509392505050565b7f4e6f7420656e6f756768204d6174696320706169640000000000000000000000600082015250565b60006132de6015836127f4565b91506132e9826132a8565b602082019050919050565b6000602082019050818103600083015261330d816132d1565b9050919050565b7f2e00000000000000000000000000000000000000000000000000000000000000600082015250565b600061334a600183612f4c565b915061335582613314565b600182019050919050565b6000815461336d81612f1b565b6133778186612f4c565b9450600182166000811461339257600181146133a7576133da565b60ff19831686528115158202860193506133da565b6133b085612fd7565b60005b838110156133d2578154818901526001820191506020810190506133b3565b838801955050505b50505092915050565b60006133f0828587612f57565b91506133fb8261333d565b91506134078284613360565b9150819050949350505050565b60006134208286613360565b915061342c8285613253565b91506134388284613360565b9150819050949350505050565b7f7b226e616d65223a202200000000000000000000000000000000000000000000600082015250565b600061347b600a83612f4c565b915061348682613445565b600a82019050919050565b7f222c20226465736372697074696f6e223a20224120646f6d61696e206f6e207460008201527f68652046756e6b206e616d652073657276696365222c2022696d616765223a2060208201527f22646174613a696d6167652f7376672b786d6c3b6261736536342c0000000000604082015250565b6000613513605b83612f4c565b915061351e82613491565b605b82019050919050565b7f222c20226c656e677468223a2022000000000000000000000000000000000000600082015250565b600061355f600e83612f4c565b915061356a82613529565b600e82019050919050565b7f227d000000000000000000000000000000000000000000000000000000000000600082015250565b60006135ab600283612f4c565b91506135b682613575565b600282019050919050565b60006135cc8261346e565b91506135d88286613253565b91506135e382613506565b91506135ef8285613253565b91506135fa82613552565b91506136068284613253565b91506136118261359e565b9150819050949350505050565b7f646174613a6170706c69636174696f6e2f6a736f6e3b6261736536342c000000600082015250565b6000613654601d83612f4c565b915061365f8261361e565b601d82019050919050565b600061367582613647565b91506136818284613253565b915081905092915050565b600081519050919050565b600082825260208201905092915050565b60006136b38261368c565b6136bd8185613697565b93506136cd818560208601612805565b6136d68161282f565b840191505092915050565b60006080820190506136f66000830187612930565b6137036020830186612930565b6137106040830185612c71565b818103606083015261372281846136a8565b905095945050505050565b60008151905061373c8161275a565b92915050565b60006020828403121561375857613757612724565b5b60006137668482850161372d565b91505092915050565b7f4e487b7100000000000000000000000000000000000000000000000000000000600052603260045260246000fd5b7f4e487b7100000000000000000000000000000000000000000000000000000000600052601160045260246000fd5b60006137d88261289b565b91506137e38361289b565b92508282019050808211156137fb576137fa61379e565b5b92915050565b600061380c8261289b565b91507fffffffffffffffffffffffffffffffffffffffffffffffffffffffffffffffff820361383e5761383d61379e565b5b600182019050919050565b7f4e487b7100000000000000000000000000000000000000000000000000000000600052601260045260246000fd5b600060808201905081810360008301526138928187612840565b905081810360208301526138a68186612840565b905081810360408301526138ba8185612840565b90506138c96060830184612c71565b95945050505050565b60006138dd8261289b565b91506138e88361289b565b9250826138f8576138f7613849565b5b828204905092915050565b600061390e8261289b565b91506139198361289b565b92508282026139278161289b565b9150828204841483151761393e5761393d61379e565b5b5092915050565b6000604082019050818103600083015261395f8185612840565b905081810360208301526139738184612840565b90509392505050565b613985826127e9565b67ffffffffffffffff81111561399e5761399d612ad0565b5b6139a88254612f1b565b6139b38282856130f6565b600060209050601f8311600181146139e657600084156139d4578287015190505b6139de8582613167565b865550613a46565b601f1984166139f486612fd7565b60005b82811015613a1c578489015182556001820191506020850194506020810190506139f7565b86831015613a395784890151613a35601f891682613149565b8355505b6001600288020188555050505b505050505050565b6000604082019050613a636000830185612930565b613a706020830184612c71565b9392505050565b7f4e487b7100000000000000000000000000000000000000000000000000000000600052605160045260246000fdfe0a2d2d2d2d2d2d2d2d2d2d2d2d2d2d2d2d2d2d2d2d2d2d2d2d2d2d2d2d2d2d2d2d2d2d2d2d2d2d2d2d2d2d2d2d2d2d2d2d2d2d2d2d2d2d2d2d5265676973746572696e672025732e2573206f6e2074686520636f6e7472616374207769746820746f6b656e49442025642d2d2d2d2d2d2d2d2d2d2d2d2d2d2d2d2d2d2d2d2d2d2d2d2d2d2d2d2d2d2d2d2d2d2d2d2d2d2d2d2d2d2d2d2d2d2d2d2d2d2d2d2d2d2d2d0a4142434445464748494a4b4c4d4e4f505152535455565758595a6162636465666768696a6b6c6d6e6f707172737475767778797a303132333435363738392b2fa26469706673582212200cc57f2c563b2343fd5f724db04d0e005edb8cc4b027806000baf2567be3939864736f6c634300081400333c73766720786d6c6e733d22687474703a2f2f7777772e77332e6f72672f323030302f737667222077696474683d2232373022206865696768743d22323730222066696c6c3d226e6f6e65223e3c706174682066696c6c3d2275726c282342292220643d224d302030683237307632373048307a222f3e3c646566733e3c66696c7465722069643d22412220636f6c6f722d696e746572706f6c6174696f6e2d66696c746572733d2273524742222066696c746572556e6974733d227573657253706163654f6e55736522206865696768743d22323730222077696474683d22323730223e3c666544726f70536861646f772064783d2230222064793d22312220737464446576696174696f6e3d22322220666c6f6f642d6f7061636974793d222e323235222077696474683d223230302522206865696768743d2232303025222f3e3c2f66696c7465723e3c2f646566733e3c7061746820643d224d37322e3836332034322e393439632d2e3636382d2e3338372d312e3432362d2e35392d322e3139372d2e3539732d312e3532392e3230342d322e3139372e35396c2d31302e30383120362e3033322d362e383520332e3933342d31302e30383120362e303332632d2e3636382e3338372d312e3432362e35392d322e3139372e3539732d312e3532392d2e3230342d322e3139372d2e35396c2d382e3031332d342e37323161342e353220342e35322030203020312d312e3538392d312e363136632d2e3338342d2e3636352d2e3539342d312e3431382d2e3630382d322e313837762d392e3331632d2e3031332d2e3737352e3138352d312e3533382e3537322d322e32303861342e323520342e323520302030203120312e3632352d312e3539356c372e3838342d342e3539632e3636382d2e33383720312e3432362d2e353920322e3139372d2e353973312e3532392e32303420322e3139372e35396c372e38383420342e353961342e353220342e353220302030203120312e35383920312e363136632e3338342e3636352e35393420312e3431382e36303820322e31383776362e3033326c362e38352d342e303635762d362e303332632e3031332d2e3737352d2e3138352d312e3533382d2e3537322d322e32303861342e323520342e32352030203020302d312e3632352d312e3539354c34312e3435362032342e3539632d2e3636382d2e3338372d312e3432362d2e35392d322e3139372d2e3539732d312e3532392e3230342d322e3139372e35396c2d31342e38363420382e36353561342e323520342e32352030203020302d312e36323520312e353935632d2e3338372e36372d2e35383520312e3433342d2e35373220322e3230387631372e343431632d2e3031332e3737352e31383520312e3533382e35373220322e32303861342e323520342e323520302030203020312e36323520312e3539356c31342e38363420382e363535632e3636382e33383720312e3432362e353920322e3139372e353973312e3532392d2e32303420322e3139372d2e35396c31302e3038312d352e39303120362e38352d342e3036352031302e3038312d352e393031632e3636382d2e33383720312e3432362d2e353920322e3139372d2e353973312e3532392e32303420322e3139372e35396c372e38383420342e353961342e353220342e353220302030203120312e35383920312e363136632e3338342e3636352e35393420312e3431382e36303820322e31383776392e333131632e3031332e3737352d2e31383520312e3533382d2e35373220322e32303861342e323520342e32352030203020312d312e36323520312e3539356c2d372e38383420342e373231632d2e3636382e3338372d312e3432362e35392d322e3139372e3539732d312e3532392d2e3230342d322e3139372d2e35396c2d372e3838342d342e353961342e353220342e35322030203020312d312e3538392d312e363136632d2e3338352d2e3636352d2e3539342d312e3431382d2e3630382d322e313837762d362e3033326c2d362e383520342e30363576362e303332632d2e3031332e3737352e31383520312e3533382e35373220322e32303861342e323520342e323520302030203020312e36323520312e3539356c31342e38363420382e363535632e3636382e33383720312e3432362e353920322e3139372e353973312e3532392d2e32303420322e3139372d2e35396c31342e3836342d382e363535632e3635372d2e33393420312e3230342d2e393520312e3538392d312e363136732e3539342d312e3431382e3630392d322e3138375635352e353338632e3031332d2e3737352d2e3138352d312e3533382d2e3537322d322e32303861342e323520342e32352030203020302d312e3632352d312e3539356c2d31342e3939332d382e3738367a222066696c6c3d2223666666222f3e3c646566733e3c6c696e6561724772616469656e742069643d2242222078313d2230222079313d2230222078323d22323730222079323d2232373022206772616469656e74556e6974733d227573657253706163654f6e557365223e3c73746f702073746f702d636f6c6f723d2223636235656565222f3e3c73746f70206f66667365743d2231222073746f702d636f6c6f723d2223306364376534222073746f702d6f7061636974793d222e3939222f3e3c2f6c696e6561724772616469656e743e3c2f646566733e3c7465787420783d2233322e352220793d223233312220666f6e742d73697a653d223237222066696c6c3d2223666666222066696c7465723d2275726c282341292220666f6e742d66616d696c793d22506c7573204a616b617274612053616e732c44656a6156752053616e732c4e6f746f20436f6c6f7220456d6f6a692c4170706c6520436f6c6f7220456d6f6a692c73616e732d73657269662220666f6e742d7765696768743d22626f6c64223e",
  "linkReferences": {},
  "deployedLinkReferences": {}
}